{
    "abi": [
        {
            "type": "constructor",
            "inputs": [
                {
                    "name": "_somiToken",
                    "type": "address",
                    "internalType": "address"
                }
            ],
            "stateMutability": "nonpayable"
        },
        {
            "type": "function",
            "name": "BASIS_POINTS",
            "inputs": [],
            "outputs": [
                {
                    "name": "",
                    "type": "uint256",
                    "internalType": "uint256"
                }
            ],
            "stateMutability": "view"
        },
        {
            "type": "function",
            "name": "activeMarkets",
            "inputs": [
                {
                    "name": "",
                    "type": "uint256",
                    "internalType": "uint256"
                }
            ],
            "outputs": [
                {
                    "name": "",
                    "type": "bytes32",
                    "internalType": "bytes32"
                }
            ],
            "stateMutability": "view"
        },
        {
            "type": "function",
            "name": "authorizedResolvers",
            "inputs": [
                {
                    "name": "",
                    "type": "address",
                    "internalType": "address"
                }
            ],
            "outputs": [
                {
                    "name": "",
                    "type": "bool",
                    "internalType": "bool"
                }
            ],
            "stateMutability": "view"
        },
        {
            "type": "function",
            "name": "cancelMarket",
            "inputs": [
                {
                    "name": "_marketId",
                    "type": "bytes32",
                    "internalType": "bytes32"
                }
            ],
            "outputs": [],
            "stateMutability": "nonpayable"
        },
        {
            "type": "function",
            "name": "claimWinnings",
            "inputs": [
                {
                    "name": "_marketId",
                    "type": "bytes32",
                    "internalType": "bytes32"
                }
            ],
            "outputs": [],
            "stateMutability": "nonpayable"
        },
        {
            "type": "function",
            "name": "collectedFees",
            "inputs": [],
            "outputs": [
                {
                    "name": "",
                    "type": "uint256",
                    "internalType": "uint256"
                }
            ],
            "stateMutability": "view"
        },
        {
            "type": "function",
            "name": "createMarket",
            "inputs": [
                {
                    "name": "_marketId",
                    "type": "bytes32",
                    "internalType": "bytes32"
                },
                {
                    "name": "_marketType",
                    "type": "uint8",
                    "internalType": "enum PredictionMarket.MarketType"
                },
                {
                    "name": "_question",
                    "type": "string",
                    "internalType": "string"
                },
                {
                    "name": "_resolutionTime",
                    "type": "uint256",
                    "internalType": "uint256"
                },
                {
                    "name": "_dataSourceId",
                    "type": "bytes32",
                    "internalType": "bytes32"
                },
                {
                    "name": "_threshold",
                    "type": "uint256",
                    "internalType": "uint256"
                },
                {
                    "name": "_thresholdToken",
                    "type": "address",
                    "internalType": "address"
                }
            ],
            "outputs": [
                {
                    "name": "",
                    "type": "bytes32",
                    "internalType": "bytes32"
                }
            ],
            "stateMutability": "nonpayable"
        },
        {
            "type": "function",
            "name": "getActiveMarkets",
            "inputs": [],
            "outputs": [
                {
                    "name": "",
                    "type": "bytes32[]",
                    "internalType": "bytes32[]"
                }
            ],
            "stateMutability": "view"
        },
        {
            "type": "function",
            "name": "getMarket",
            "inputs": [
                {
                    "name": "_marketId",
                    "type": "bytes32",
                    "internalType": "bytes32"
                }
            ],
            "outputs": [
                {
                    "name": "",
                    "type": "tuple",
                    "internalType": "struct PredictionMarket.Market",
                    "components": [
                        {
                            "name": "marketId",
                            "type": "bytes32",
                            "internalType": "bytes32"
                        },
                        {
                            "name": "marketType",
                            "type": "uint8",
                            "internalType": "enum PredictionMarket.MarketType"
                        },
                        {
                            "name": "question",
                            "type": "string",
                            "internalType": "string"
                        },
                        {
                            "name": "creator",
                            "type": "address",
                            "internalType": "address"
                        },
                        {
                            "name": "createdAt",
                            "type": "uint256",
                            "internalType": "uint256"
                        },
                        {
                            "name": "resolutionTime",
                            "type": "uint256",
                            "internalType": "uint256"
                        },
                        {
                            "name": "status",
                            "type": "uint8",
                            "internalType": "enum PredictionMarket.MarketStatus"
                        },
                        {
                            "name": "winningOption",
                            "type": "uint8",
                            "internalType": "uint8"
                        },
                        {
                            "name": "totalPool",
                            "type": "uint256",
                            "internalType": "uint256"
                        },
                        {
                            "name": "optionPools",
                            "type": "uint256[2]",
                            "internalType": "uint256[2]"
                        },
                        {
                            "name": "dataSourceId",
                            "type": "bytes32",
                            "internalType": "bytes32"
                        },
                        {
                            "name": "threshold",
                            "type": "uint256",
                            "internalType": "uint256"
                        },
                        {
                            "name": "thresholdToken",
                            "type": "address",
                            "internalType": "address"
                        }
                    ]
                }
            ],
            "stateMutability": "view"
        },
        {
            "type": "function",
            "name": "getMarketBets",
            "inputs": [
                {
                    "name": "_marketId",
                    "type": "bytes32",
                    "internalType": "bytes32"
                }
            ],
            "outputs": [
                {
                    "name": "",
                    "type": "tuple[]",
                    "internalType": "struct PredictionMarket.Bet[]",
                    "components": [
                        {
                            "name": "bettor",
                            "type": "address",
                            "internalType": "address"
                        },
                        {
                            "name": "marketId",
                            "type": "bytes32",
                            "internalType": "bytes32"
                        },
                        {
                            "name": "option",
                            "type": "uint8",
                            "internalType": "uint8"
                        },
                        {
                            "name": "amount",
                            "type": "uint256",
                            "internalType": "uint256"
                        },
                        {
                            "name": "timestamp",
                            "type": "uint256",
                            "internalType": "uint256"
                        },
                        {
                            "name": "claimed",
                            "type": "bool",
                            "internalType": "bool"
                        }
                    ]
                }
            ],
            "stateMutability": "view"
        },
        {
            "type": "function",
            "name": "getOdds",
            "inputs": [
                {
                    "name": "_marketId",
                    "type": "bytes32",
                    "internalType": "bytes32"
                }
            ],
            "outputs": [
                {
                    "name": "yesOdds",
                    "type": "uint256",
                    "internalType": "uint256"
                },
                {
                    "name": "noOdds",
                    "type": "uint256",
                    "internalType": "uint256"
                }
            ],
            "stateMutability": "view"
        },
        {
            "type": "function",
            "name": "getUserMarketBets",
            "inputs": [
                {
                    "name": "_marketId",
                    "type": "bytes32",
                    "internalType": "bytes32"
                },
                {
                    "name": "_user",
                    "type": "address",
                    "internalType": "address"
                }
            ],
            "outputs": [
                {
                    "name": "",
                    "type": "tuple[]",
                    "internalType": "struct PredictionMarket.Bet[]",
                    "components": [
                        {
                            "name": "bettor",
                            "type": "address",
                            "internalType": "address"
                        },
                        {
                            "name": "marketId",
                            "type": "bytes32",
                            "internalType": "bytes32"
                        },
                        {
                            "name": "option",
                            "type": "uint8",
                            "internalType": "uint8"
                        },
                        {
                            "name": "amount",
                            "type": "uint256",
                            "internalType": "uint256"
                        },
                        {
                            "name": "timestamp",
                            "type": "uint256",
                            "internalType": "uint256"
                        },
                        {
                            "name": "claimed",
                            "type": "bool",
                            "internalType": "bool"
                        }
                    ]
                }
            ],
            "stateMutability": "view"
        },
        {
            "type": "function",
            "name": "marketBets",
            "inputs": [
                {
                    "name": "",
                    "type": "bytes32",
                    "internalType": "bytes32"
                },
                {
                    "name": "",
                    "type": "uint256",
                    "internalType": "uint256"
                }
            ],
            "outputs": [
                {
                    "name": "bettor",
                    "type": "address",
                    "internalType": "address"
                },
                {
                    "name": "marketId",
                    "type": "bytes32",
                    "internalType": "bytes32"
                },
                {
                    "name": "option",
                    "type": "uint8",
                    "internalType": "uint8"
                },
                {
                    "name": "amount",
                    "type": "uint256",
                    "internalType": "uint256"
                },
                {
                    "name": "timestamp",
                    "type": "uint256",
                    "internalType": "uint256"
                },
                {
                    "name": "claimed",
                    "type": "bool",
                    "internalType": "bool"
                }
            ],
            "stateMutability": "view"
        },
        {
            "type": "function",
            "name": "markets",
            "inputs": [
                {
                    "name": "",
                    "type": "bytes32",
                    "internalType": "bytes32"
                }
            ],
            "outputs": [
                {
                    "name": "marketId",
                    "type": "bytes32",
                    "internalType": "bytes32"
                },
                {
                    "name": "marketType",
                    "type": "uint8",
                    "internalType": "enum PredictionMarket.MarketType"
                },
                {
                    "name": "question",
                    "type": "string",
                    "internalType": "string"
                },
                {
                    "name": "creator",
                    "type": "address",
                    "internalType": "address"
                },
                {
                    "name": "createdAt",
                    "type": "uint256",
                    "internalType": "uint256"
                },
                {
                    "name": "resolutionTime",
                    "type": "uint256",
                    "internalType": "uint256"
                },
                {
                    "name": "status",
                    "type": "uint8",
                    "internalType": "enum PredictionMarket.MarketStatus"
                },
                {
                    "name": "winningOption",
                    "type": "uint8",
                    "internalType": "uint8"
                },
                {
                    "name": "totalPool",
                    "type": "uint256",
                    "internalType": "uint256"
                },
                {
                    "name": "dataSourceId",
                    "type": "bytes32",
                    "internalType": "bytes32"
                },
                {
                    "name": "threshold",
                    "type": "uint256",
                    "internalType": "uint256"
                },
                {
                    "name": "thresholdToken",
                    "type": "address",
                    "internalType": "address"
                }
            ],
            "stateMutability": "view"
        },
        {
            "type": "function",
            "name": "maxBetAmount",
            "inputs": [],
            "outputs": [
                {
                    "name": "",
                    "type": "uint256",
                    "internalType": "uint256"
                }
            ],
            "stateMutability": "view"
        },
        {
            "type": "function",
            "name": "minBetAmount",
            "inputs": [],
            "outputs": [
                {
                    "name": "",
                    "type": "uint256",
                    "internalType": "uint256"
                }
            ],
            "stateMutability": "view"
        },
        {
            "type": "function",
            "name": "owner",
            "inputs": [],
            "outputs": [
                {
                    "name": "",
                    "type": "address",
                    "internalType": "address"
                }
            ],
            "stateMutability": "view"
        },
        {
            "type": "function",
            "name": "placeBet",
            "inputs": [
                {
                    "name": "_marketId",
                    "type": "bytes32",
                    "internalType": "bytes32"
                },
                {
                    "name": "_option",
                    "type": "uint8",
                    "internalType": "uint8"
                },
                {
                    "name": "_amount",
                    "type": "uint256",
                    "internalType": "uint256"
                }
            ],
            "outputs": [],
            "stateMutability": "nonpayable"
        },
        {
            "type": "function",
            "name": "platformFee",
            "inputs": [],
            "outputs": [
                {
                    "name": "",
                    "type": "uint256",
                    "internalType": "uint256"
                }
            ],
            "stateMutability": "view"
        },
        {
            "type": "function",
            "name": "refundBets",
            "inputs": [
                {
                    "name": "_marketId",
                    "type": "bytes32",
                    "internalType": "bytes32"
                }
            ],
            "outputs": [],
            "stateMutability": "nonpayable"
        },
        {
            "type": "function",
            "name": "renounceOwnership",
            "inputs": [],
            "outputs": [],
            "stateMutability": "nonpayable"
        },
        {
            "type": "function",
            "name": "resolveMarket",
            "inputs": [
                {
                    "name": "_marketId",
                    "type": "bytes32",
                    "internalType": "bytes32"
                },
                {
                    "name": "_winningOption",
                    "type": "uint8",
                    "internalType": "uint8"
                }
            ],
            "outputs": [],
            "stateMutability": "nonpayable"
        },
        {
            "type": "function",
            "name": "setBetLimits",
            "inputs": [
                {
                    "name": "_min",
                    "type": "uint256",
                    "internalType": "uint256"
                },
                {
                    "name": "_max",
                    "type": "uint256",
                    "internalType": "uint256"
                }
            ],
            "outputs": [],
            "stateMutability": "nonpayable"
        },
        {
            "type": "function",
            "name": "setPlatformFee",
            "inputs": [
                {
                    "name": "_fee",
                    "type": "uint256",
                    "internalType": "uint256"
                }
            ],
            "outputs": [],
            "stateMutability": "nonpayable"
        },
        {
            "type": "function",
            "name": "setResolver",
            "inputs": [
                {
                    "name": "_resolver",
                    "type": "address",
                    "internalType": "address"
                },
                {
                    "name": "_authorized",
                    "type": "bool",
                    "internalType": "bool"
                }
            ],
            "outputs": [],
            "stateMutability": "nonpayable"
        },
        {
            "type": "function",
            "name": "somiToken",
            "inputs": [],
            "outputs": [
                {
                    "name": "",
                    "type": "address",
                    "internalType": "contract IERC20"
                }
            ],
            "stateMutability": "view"
        },
        {
            "type": "function",
            "name": "transferOwnership",
            "inputs": [
                {
                    "name": "newOwner",
                    "type": "address",
                    "internalType": "address"
                }
            ],
            "outputs": [],
            "stateMutability": "nonpayable"
        },
        {
            "type": "function",
            "name": "userBetIndices",
            "inputs": [
                {
                    "name": "",
                    "type": "bytes32",
                    "internalType": "bytes32"
                },
                {
                    "name": "",
                    "type": "address",
                    "internalType": "address"
                },
                {
                    "name": "",
                    "type": "uint256",
                    "internalType": "uint256"
                }
            ],
            "outputs": [
                {
                    "name": "",
                    "type": "uint256",
                    "internalType": "uint256"
                }
            ],
            "stateMutability": "view"
        },
        {
            "type": "function",
            "name": "userBets",
            "inputs": [
                {
                    "name": "",
                    "type": "address",
                    "internalType": "address"
                },
                {
                    "name": "",
                    "type": "uint256",
                    "internalType": "uint256"
                }
            ],
            "outputs": [
                {
                    "name": "",
                    "type": "bytes32",
                    "internalType": "bytes32"
                }
            ],
            "stateMutability": "view"
        },
        {
            "type": "function",
            "name": "withdrawFees",
            "inputs": [],
            "outputs": [],
            "stateMutability": "nonpayable"
        },
        {
            "type": "event",
            "name": "BetLimitsUpdated",
            "inputs": [
                {
                    "name": "minAmount",
                    "type": "uint256",
                    "indexed": false,
                    "internalType": "uint256"
                },
                {
                    "name": "maxAmount",
                    "type": "uint256",
                    "indexed": false,
                    "internalType": "uint256"
                }
            ],
            "anonymous": false
        },
        {
            "type": "event",
            "name": "BetPlaced",
            "inputs": [
                {
                    "name": "marketId",
                    "type": "bytes32",
                    "indexed": true,
                    "internalType": "bytes32"
                },
                {
                    "name": "bettor",
                    "type": "address",
                    "indexed": true,
                    "internalType": "address"
                },
                {
                    "name": "option",
                    "type": "uint8",
                    "indexed": false,
                    "internalType": "uint8"
                },
                {
                    "name": "amount",
                    "type": "uint256",
                    "indexed": false,
                    "internalType": "uint256"
                },
                {
                    "name": "timestamp",
                    "type": "uint256",
                    "indexed": false,
                    "internalType": "uint256"
                }
            ],
            "anonymous": false
        },
        {
            "type": "event",
            "name": "BetsRefunded",
            "inputs": [
                {
                    "name": "marketId",
                    "type": "bytes32",
                    "indexed": true,
                    "internalType": "bytes32"
                },
                {
                    "name": "totalRefunded",
                    "type": "uint256",
                    "indexed": false,
                    "internalType": "uint256"
                }
            ],
            "anonymous": false
        },
        {
            "type": "event",
            "name": "FeesWithdrawn",
            "inputs": [
                {
                    "name": "owner",
                    "type": "address",
                    "indexed": true,
                    "internalType": "address"
                },
                {
                    "name": "amount",
                    "type": "uint256",
                    "indexed": false,
                    "internalType": "uint256"
                }
            ],
            "anonymous": false
        },
        {
            "type": "event",
            "name": "MarketCancelled",
            "inputs": [
                {
                    "name": "marketId",
                    "type": "bytes32",
                    "indexed": true,
                    "internalType": "bytes32"
                }
            ],
            "anonymous": false
        },
        {
            "type": "event",
            "name": "MarketCreated",
            "inputs": [
                {
                    "name": "marketId",
                    "type": "bytes32",
                    "indexed": true,
                    "internalType": "bytes32"
                },
                {
                    "name": "marketType",
                    "type": "uint8",
                    "indexed": false,
                    "internalType": "enum PredictionMarket.MarketType"
                },
                {
                    "name": "question",
                    "type": "string",
                    "indexed": false,
                    "internalType": "string"
                },
                {
                    "name": "creator",
                    "type": "address",
                    "indexed": true,
                    "internalType": "address"
                },
                {
                    "name": "dataSourceId",
                    "type": "bytes32",
                    "indexed": false,
                    "internalType": "bytes32"
                },
                {
                    "name": "threshold",
                    "type": "uint256",
                    "indexed": false,
                    "internalType": "uint256"
                },
                {
                    "name": "thresholdToken",
                    "type": "address",
                    "indexed": false,
                    "internalType": "address"
                }
            ],
            "anonymous": false
        },
        {
            "type": "event",
            "name": "MarketResolved",
            "inputs": [
                {
                    "name": "marketId",
                    "type": "bytes32",
                    "indexed": true,
                    "internalType": "bytes32"
                },
                {
                    "name": "winningOption",
                    "type": "uint8",
                    "indexed": false,
                    "internalType": "uint8"
                },
                {
                    "name": "totalPool",
                    "type": "uint256",
                    "indexed": false,
                    "internalType": "uint256"
                }
            ],
            "anonymous": false
        },
        {
            "type": "event",
            "name": "OwnershipTransferred",
            "inputs": [
                {
                    "name": "previousOwner",
                    "type": "address",
                    "indexed": true,
                    "internalType": "address"
                },
                {
                    "name": "newOwner",
                    "type": "address",
                    "indexed": true,
                    "internalType": "address"
                }
            ],
            "anonymous": false
        },
        {
            "type": "event",
            "name": "PlatformFeeUpdated",
            "inputs": [
                {
                    "name": "newFee",
                    "type": "uint256",
                    "indexed": false,
                    "internalType": "uint256"
                }
            ],
            "anonymous": false
        },
        {
            "type": "event",
            "name": "ResolverUpdated",
            "inputs": [
                {
                    "name": "resolver",
                    "type": "address",
                    "indexed": true,
                    "internalType": "address"
                },
                {
                    "name": "authorized",
                    "type": "bool",
                    "indexed": false,
                    "internalType": "bool"
                }
            ],
            "anonymous": false
        },
        {
            "type": "event",
            "name": "WinningsClaimed",
            "inputs": [
                {
                    "name": "marketId",
                    "type": "bytes32",
                    "indexed": true,
                    "internalType": "bytes32"
                },
                {
                    "name": "bettor",
                    "type": "address",
                    "indexed": true,
                    "internalType": "address"
                },
                {
                    "name": "amount",
                    "type": "uint256",
                    "indexed": false,
                    "internalType": "uint256"
                }
            ],
            "anonymous": false
        },
        {
            "type": "error",
            "name": "OwnableInvalidOwner",
            "inputs": [
                {
                    "name": "owner",
                    "type": "address",
                    "internalType": "address"
                }
            ]
        },
        {
            "type": "error",
            "name": "OwnableUnauthorizedAccount",
            "inputs": [
                {
                    "name": "account",
                    "type": "address",
                    "internalType": "address"
                }
            ]
        },
        {
            "type": "error",
            "name": "ReentrancyGuardReentrantCall",
            "inputs": []
        },
        {
            "type": "error",
            "name": "SafeERC20FailedOperation",
            "inputs": [
                {
                    "name": "token",
                    "type": "address",
                    "internalType": "address"
                }
            ]
        }
    ],
    "bytecode": {
        "object": "0x60a03461016c57601f6200241c38819003918201601f19168301916001600160401b038311848410176101705780849260209460405283398101031261016c57516001600160a01b03908181169081900361016c573315610154575f8054336001600160a01b0319821681178355604051949293929091167f8be0079c531659141344cd1fd0a4f28419497f9722a3daafe3b4186f6b6457e08480a36001805560c8600755662386f26fc1000060085568056bc75e2d6310000060095580156101125760409250608052338152600b60205220600160ff19825416179055604051612297908162000185823960805181818161040201528181610edf01528181611471015281816117cc0152611b9b0152f35b62461bcd60e51b835260206004840152601560248401527f496e76616c696420746f6b656e206164647265737300000000000000000000006044840152606483fd5b604051631e4fbdf760e01b81525f6004820152602490fd5b5f80fd5b634e487b7160e01b5f52604160045260245ffdfe60806040526004361015610011575f80fd5b5f3560e01c8063025f9dc014611a865780630bd12209146117075780630e599d721461167f57806312e8e2c3146115f55780631da6ed7c1461156f57806326232a2e146115525780633adfe6d014611502578063476343ee1461143d5780635e382837146112dd578063715018a6146112865780637564912b146111a75780637687dd49146111105780638068aa68146110c75780638da5cb5b146110a05780638fb361f6146110405780639003adfe146110235780639887531c14610f0e578063a489080a14610eca578063a5e973c314610e18578063aad8b57b146108da578063b20c7f2d1461085d578063bdb83289146107dd578063c3c95c7b14610571578063cab11d5d14610554578063d794d2d914610517578063e1f1c4a7146104fb578063e49b606c14610233578063e8ceea2f14610209578063f2fde38b146101845763fa968eea14610163575f80fd5b34610180575f366003190112610180576020600854604051908152f35b5f80fd5b346101805760203660031901126101805761019d611ca6565b6101a5612162565b6001600160a01b039081169081156101f1575f54826001600160601b0360a01b8216175f55167f8be0079c531659141344cd1fd0a4f28419497f9722a3daafe3b4186f6b6457e05f80a3005b604051631e4fbdf760e01b81525f6004820152602490fd5b34610180576020366003190112610180576040610227600435612037565b82519182526020820152f35b34610180576020806003193601126101805760043561025061223e565b805f5260029182815260405f209261026a84541515611f2e565b6006840180549060ff9081831660048110156104e75784036104ac57855f5260059182865260405f20335f52865260405f2094855415610477575f9882600880920196821c16966102d76102be8989611fef565b9890546003998a1b1c99155f1461047057600190611fef565b905490881b1c985f5b82548110156103d0578b5f5288825261030c60405f206103008386611cd2565b9054908c1b1c90611c8d565b50888101805488811615806103bd575b610332575b50505061032d9061200b565b6102e0565b8d9f93928d928d9260ff1916600117905501549e8f9061035191611f1b565b9061035b91612019565b916007546103699084611f1b565b61271090049e8f9361037a91611ffe565b9283039283116103a95761032d9261039191611ffe565b9d61039f600a918254611ffe565b9055908e80610321565b634e487b7160e01b5f52601160045260245ffd5b50888884015416898b54891c161461031c565b8c8c838215610435577fac1dfcff29900d7010c04a6028e48814b8a49daf045127abd10a4636d1d491159061042684337f000000000000000000000000000000000000000000000000000000000000000061218d565b6040519384523393a360018055005b6064906040519062461bcd60e51b8252600482015260146024820152734e6f2077696e6e696e677320746f20636c61696d60601b6044820152fd5b5f90611fef565b60405162461bcd60e51b815260048101889052600d60248201526c139bc818995d1cc8199bdd5b99609a1b6044820152606490fd5b60405162461bcd60e51b815260048101869052601360248201527213585c9ad95d081b9bdd081c995cdbdb1d9959606a1b6044820152606490fd5b634e487b7160e01b5f52602160045260245ffd5b34610180575f3660031901126101805760206040516127108152f35b34610180576020366003190112610180576001600160a01b03610538611ca6565b165f52600b602052602060ff60405f2054166040519015158152f35b34610180575f366003190112610180576020600954604051908152f35b34610180576020366003190112610180575f61018060405161059281611d3b565b828152826020820152606060408201528260608201528260808201528260a08201528260c08201528260e0820152826101008201526040516105d381611d58565b6040368237610120820152826101408201528261016082015201526004355f52600260205260405f206040519061060982611d3b565b8054825261062160ff60018301541660208401611f0f565b61062d60028201611d96565b604083015260038101546001600160a01b031660608301526004808201546080840152600582015460a084015260068201549060ff821610156104e75760ff80821660c0850152600891821c1660e084015260078201546101008401526040519082015f825b600282106107c7575050506106a781611d58565b610120830152600a810154610140830152600b810154610160830152600c01546001600160a01b031661018082015260408051602080825283518183015283015190916106f79190830190611e37565b61071260408301516101c060608401526101e0830190611e44565b60018060a01b036060840151166080830152608083015160a083015260a083015160c083015261074a60c084015160e0840190611e82565b60ff60e0840151166101008301526101008301516101208301526101208301519261014083015f905b600282106107b1575050610140810151610180808501919091526101608201516101a085015201516001600160a01b03166101c08301528190039150f35b6020806001928851815201960191019094610773565b6001602081928554815201930191019091610693565b34610180576020366003190112610180576004356107f9612162565b805f526002602052600660405f2061081381541515611f2e565b01805460ff81169060048210156104e75761083060039215611f72565b60ff19161790557f22ad0fb1e02d1db96e8800dac4e4b23821afaf9e1ca54d2093e7bc7fb8732b5a5f80a2005b3461018057602080600319360112610180576004355f526003815260405f208054610887816120e2565b916108956040519384611d74565b8183525f908152838120938084015b8383106108bd57604051806108b98782611e8f565b0390f35b6006826001926108cc896120fa565b8152019601920191946108a4565b346101805760e036600319011261018057600360243510156101805760443567ffffffffffffffff8111610180573660238201121561018057806004013567ffffffffffffffff8111610c5d576040519161093f601f8301601f191660200184611d74565b818352366024838301011161018057815f92602460209301838601378301015260c4356001600160a01b0381168103610180576004355f52600260205260405f2054610ddb57426064351115610d9657815115610d515760405180604081011067ffffffffffffffff604083011117610c5d57604081016040525f81525f6020820152604051906109cf82611d3b565b60043582526109e360243560208401611f0f565b83604083015233606083015242608083015260643560a08301525f60c08301525f60e08301525f61010083015261012082015260843561014082015260a43561016082015260018060a01b0382166101808201526004355f52600260205260405f208151815560018101602083015160038110156104e75760ff80198354169116179055604082015180519067ffffffffffffffff8211610c5d578190610a8d6002850154611ce7565b601f8111610d01575b50602090601f8311600114610c93575f92610c88575b50508160011b915f199060031b1c19161760028201555b6003810160018060a01b036060840151166001600160601b0360a01b8254161790556080820151600482015560a0820151600582015560c082015160048110156104e75760068201805460e085015161ff0060089190911b1660ff9390931661ffff199091161791909117905561010082015160078201556101208201515f5b60028110610c71575050600c90610140830151600a820155610160830151600b820155019061018060018060a01b03910151166001600160601b0360a01b825416179055600654600160401b811015610c5d576001810180600655811015610c495760065f52600435907ff652222313e28459528d920b65115c16c04f3efc82aaedc97be59f3f377c0d3f0155610bf460405192610be384602435611e37565b60a0602085015260a0840190611e44565b90608435604084015260a435606084015260018060a01b031660808301527fd63bcdfae90a47111c3049e51179b872d8d084679550d9aa11ff5bbad67f084d339280600435930390a360206040516004358152f35b634e487b7160e01b5f52603260045260245ffd5b634e487b7160e01b5f52604160045260245ffd5b600190602083519301926008828601015501610b43565b015190508680610aac565b9250600284015f5260205f20905f935b601f1984168510610ce6576001945083601f19811610610cce575b505050811b016002820155610ac3565b01515f1960f88460031b161c19169055868080610cbe565b81810151835560209485019460019093019290910190610ca3565b909150600284015f5260205f20601f840160051c810160208510610d4a575b90849392915b601f830160051c82018110610d3c575050610a96565b5f8155859450600101610d26565b5080610d20565b60405162461bcd60e51b815260206004820152601860248201527f5175657374696f6e2063616e6e6f7420626520656d70747900000000000000006044820152606490fd5b60405162461bcd60e51b815260206004820152601760248201527f496e76616c6964207265736f6c7574696f6e2074696d650000000000000000006044820152606490fd5b60405162461bcd60e51b81526020600482015260156024820152744d61726b657420616c72656164792065786973747360581b6044820152606490fd5b34610180575f36600319011261018057604051806006548083526020809301809160065f527ff652222313e28459528d920b65115c16c04f3efc82aaedc97be59f3f377c0d3f905f5b86828210610eb6578686610e7782880383611d74565b60405192839281840190828552518091526040840192915f5b828110610e9f57505050500390f35b835185528695509381019392810192600101610e90565b835485529093019260019283019201610e61565b34610180575f366003190112610180576040517f00000000000000000000000000000000000000000000000000000000000000006001600160a01b03168152602090f35b3461018057604036600319011261018057600435610f2a611cbc565b815f526020906005825260405f209060018060a01b03165f52815260405f20805491610f55836120e2565b93610f636040519586611d74565b838552601f19610f72856120e2565b01825f5b828110610fe9575050505f5b848110610f9757604051806108b98882611e8f565b610fe490825f52610fc9610fc3600380875260405f2090610fb8858a611cd2565b9054911b1c90611c8d565b506120fa565b610fd3828961214e565b52610fde818861214e565b5061200b565b610f82565b604051610ff581611d1f565b5f81525f838201525f60408201525f60608201525f60808201525f60a082015282828a010152018390610f76565b34610180575f366003190112610180576020600a54604051908152f35b3461018057606036600319011261018057611059611cbc565b604435906004355f52600560205260405f209060018060a01b03165f5260205260405f2080548210156101805760209161109291611cd2565b90546040519160031b1c8152f35b34610180575f366003190112610180575f546040516001600160a01b039091168152602090f35b34610180576040366003190112610180576110e0611ca6565b6001600160a01b03165f908152600460205260409020805460243591908210156101805760209161109291611cd2565b346101805760403660031901126101805760043560243561112f612162565b8082101561117157816040917ff483a8cf66fadba78e10f404e5f1639eb2a336535936e1af01f333d1215378d1936008558060095582519182526020820152a1005b60405162461bcd60e51b815260206004820152600e60248201526d496e76616c6964206c696d69747360901b6044820152606490fd5b34610180576020366003190112610180576004355f526002602052602060405f2080549060ff6001820154166111df60028301611d96565b9160018060a01b03806003830154169360ff60048401546005850154600686015491611242600788015495611230600a8a015498600c600b8c01549b0154169a6040519e8f9e8f9081520190611e37565b61018060408d018190528c0190611e44565b9860608b015260808a015260a089015261126160c08901838316611e82565b60081c1660e08701526101008601526101208501526101408401526101608301520390f35b34610180575f3660031901126101805761129e612162565b5f80546001600160a01b0319811682556001600160a01b03167f8be0079c531659141344cd1fd0a4f28419497f9722a3daafe3b4186f6b6457e08280a3005b34610180576040366003190112610180576004356112f9611c7d565b335f52600b60205260ff60405f205416801561142a575b156113f457815f52600260205260405f209061132e82541515611f2e565b600682019182549260ff841660048110156104e75761134d9015611f72565b60ff83169161135f6001841115611fb2565b600581015442106113bc5761ffff1990941660089390931b61ff0016929092176002179091557fe43e069a17a718f6814ffc6f09f86a39b93ab8b4ec9a2314936fc013770d2db291604091906007015482519182526020820152a2005b60405162461bcd60e51b815260206004820152601060248201526f4d61726b6574206e6f7420726561647960801b6044820152606490fd5b60405162461bcd60e51b815260206004820152600e60248201526d139bdd08185d5d1a1bdc9a5e995960921b6044820152606490fd5b505f546001600160a01b03163314611310565b34610180575f36600319011261018057611455612162565b61145d61223e565b600a5480156114c7575f600a5561149581337f000000000000000000000000000000000000000000000000000000000000000061218d565b6040519081527fc0819c13be868895eb93e40eaceb96de976442fa1d404e5c55f14bb65a8c489a60203392a260018055005b60405162461bcd60e51b81526020600482015260136024820152724e6f206665657320746f20776974686472617760681b6044820152606490fd5b34610180576020366003190112610180576004356006548110156101805760209060065f527ff652222313e28459528d920b65115c16c04f3efc82aaedc97be59f3f377c0d3f0154604051908152f35b34610180575f366003190112610180576020600754604051908152f35b3461018057604036600319011261018057611588611ca6565b6024359081151590818303610180577fd8ea402e95478feee1bea3f652c970c98c456281ae29a9987918e9e8b6754bb4916115ec6020926115c7612162565b60018060a01b031694855f52600b845260405f209060ff801983541691151516179055565b604051908152a2005b3461018057602036600319011261018057600435611611612162565b6103e8811161164b576020817f45610d581145924dd7090a5017e5f2b1d6f42213bb2e95707ff86846bbfcb1ca92600755604051908152a1005b60405162461bcd60e51b815260206004820152600c60248201526b08ccaca40e8dede40d0d2ced60a31b6044820152606490fd5b34610180576040366003190112610180576024356004355f52600360205260405f2080548210156101805760c0916116b691611c8d565b5060018060a01b038154169060018101549060ff60028201541660038201549060ff6005600485015494015416936040519586526020860152604085015260608401526080830152151560a0820152f35b3461018057606036600319011261018057611720611c7d565b61172861223e565b6004355f52600260205260405f2061174281541515611f2e565b60ff60068201541660048110156104e75761175d9015611f72565b61176d600160ff84161115611fb2565b60085460443510611a515760095460443511611a1c576040516323b872dd60e01b602082015233602482015230604482015260443560648201526064815260a081019080821067ffffffffffffffff831117610c5d576117f0916040527f00000000000000000000000000000000000000000000000000000000000000006121d9565b6040516117fc81611d1f565b338152600435602082015260ff8316604082015260443560608201524260808201525f60a08201526004355f52600360205260405f208054600160401b811015610c5d5761184f91600182018155611c8d565b611a0957600560a06118be93600180831b038151166001600160601b03831b855416178455602081015160018501556002840160ff60408301511660ff1982541617905560608101516003850155608081015160048501550151151591019060ff801983541691151516179055565b335f52600460205260405f20805490600160401b821015610c5d57816118ec91600161190794018155611cd2565b6004929192359083549060031b91821b915f19901b19161790565b90556004355f52600560205260405f20335f5260205260405f20906004355f52600360205260405f20545f1981019081116103a9578254600160401b811015610c5d5761195f81600795600161197594018155611cd2565b819391549060031b91821b915f19901b19161790565b90556119b06119878460088401611fef565b819291549061199d604435838360031b1c611ffe565b919060031b91821b915f19901b19161790565b9055016119c06044358254611ffe565b905560ff60405191168152604435602082015242604082015233907fe26b9a058e130a50e470b0deac5ba77fb3ca6df9d10a7dadd563b5c7e30a42be606060043592a360018055005b634e487b7160e01b5f525f60045260245ffd5b60405162461bcd60e51b815260206004820152600d60248201526c42657420746f6f206c6172676560981b6044820152606490fd5b60405162461bcd60e51b815260206004820152600d60248201526c10995d081d1bdbc81cdb585b1b609a1b6044820152606490fd5b34610180576020806003193601126101805760043590611aa461223e565b815f5260028152600660405f20611abd81541515611f2e565b015460ff90811660048110156104e7576003809103611c4157835f5260059081845260405f20335f52845260405f2091825415611c08575f925f5b8154811015611b6857875f52838752611b2460405f20611b188385611cd2565b905490871b1c90611c8d565b50838101805488811615611b44575b505050611b3f9061200b565b611af8565b60ff191660011790558401549094611b3f91611b5f91611ffe565b94908980611b33565b8787868015611bcc579081611bbf7f32623b441d447e60365c6ad4300f90789824dc3b8e4a6a602975b5f710b6cdfd93337f000000000000000000000000000000000000000000000000000000000000000061218d565b604051908152a260018055005b60405162461bcd60e51b81526004810183905260146024820152734e6f20726566756e647320617661696c61626c6560601b6044820152606490fd5b60405162461bcd60e51b8152600481018690526011602482015270139bc818995d1cc81d1bc81c99599d5b99607a1b6044820152606490fd5b60405162461bcd60e51b815260048101849052601460248201527313585c9ad95d081b9bdd0818d85b98d95b1b195960621b6044820152606490fd5b6024359060ff8216820361018057565b8054821015610c49575f52600660205f20910201905f90565b600435906001600160a01b038216820361018057565b602435906001600160a01b038216820361018057565b8054821015610c49575f5260205f2001905f90565b90600182811c92168015611d15575b6020831014611d0157565b634e487b7160e01b5f52602260045260245ffd5b91607f1691611cf6565b60c0810190811067ffffffffffffffff821117610c5d57604052565b6101a0810190811067ffffffffffffffff821117610c5d57604052565b6040810190811067ffffffffffffffff821117610c5d57604052565b90601f8019910116810190811067ffffffffffffffff821117610c5d57604052565b9060405191825f825492611da984611ce7565b9081845260019485811690815f14611e145750600114611dd4575b5050611dd292500383611d74565b565b909391505f52602090815f20935f915b818310611dfc575050611dd293508201015f80611dc4565b85548884018501529485019487945091830191611de4565b915050611dd294506020925060ff191682840152151560051b8201015f80611dc4565b9060038210156104e75752565b91908251928382525f5b848110611e6e575050825f602080949584010152601f8019910116010190565b602081830181015184830182015201611e4e565b9060048210156104e75752565b60208082019080835283518092528060408094019401925f905b838210611eb857505050505090565b845180516001600160a01b0316875280840151878501528082015160ff1687830152606080820151908801526080808201519088015260a09081015115159087015260c09095019493820193600190910190611ea9565b60038210156104e75752565b818102929181159184041417156103a957565b15611f3557565b60405162461bcd60e51b815260206004820152601560248201527413585c9ad95d08191bd95cc81b9bdd08195e1a5cdd605a1b6044820152606490fd5b15611f7957565b60405162461bcd60e51b81526020600482015260116024820152704d61726b6574206e6f742061637469766560781b6044820152606490fd5b15611fb957565b60405162461bcd60e51b815260206004820152600e60248201526d24b73b30b634b21037b83a34b7b760911b6044820152606490fd5b6002821015610c495701905f90565b919082018092116103a957565b5f1981146103a95760010190565b8115612023570490565b634e487b7160e01b5f52601260045260245ffd5b905f91825260026020526040822091600783015480156120d657600884015480156120cd57612710820261270f19838204016120b95760099161207991612019565b9401549182156120b3576127108083029283040361209f57509061209c91612019565b90565b634e487b7160e01b81526011600452602490fd5b91505090565b634e487b7160e01b84526011600452602484fd5b50600982612079565b50509050614e20908190565b67ffffffffffffffff8111610c5d5760051b60200190565b9060405161210781611d1f565b60a060ff60058395600180851b0381541685526001810154602086015282600282015416604086015260038101546060860152600481015460808601520154161515910152565b8051821015610c495760209160051b010190565b5f546001600160a01b0316330361217557565b60405163118cdaa760e01b8152336004820152602490fd5b60405163a9059cbb60e01b60208201526001600160a01b039092166024830152604480830193909352918152608081019167ffffffffffffffff831182841017610c5d57611dd2926040525b905f602091828151910182855af115612233575f513d61222a57506001600160a01b0381163b155b6122085750565b604051635274afe760e01b81526001600160a01b039091166004820152602490fd5b60011415612201565b6040513d5f823e3d90fd5b60026001541461224f576002600155565b604051633ee5aeb560e01b8152600490fdfea2646970667358221220d833b06ef3c01f2960ccfbddd011708fe73d19cf56e5ceb03bb27804be41521364736f6c63430008140033",
        "linkReferences": {}
    },
    "methodIdentifiers": {
        "BASIS_POINTS()": "e1f1c4a7",
        "activeMarkets(uint256)": "3adfe6d0",
        "authorizedResolvers(address)": "d794d2d9",
        "cancelMarket(bytes32)": "bdb83289",
        "claimWinnings(bytes32)": "e49b606c",
        "collectedFees()": "9003adfe",
        "createMarket(bytes32,uint8,string,uint256,bytes32,uint256,address)": "aad8b57b",
        "getActiveMarkets()": "a5e973c3",
        "getMarket(bytes32)": "c3c95c7b",
        "getMarketBets(bytes32)": "b20c7f2d",
        "getOdds(bytes32)": "e8ceea2f",
        "getUserMarketBets(bytes32,address)": "9887531c",
        "marketBets(bytes32,uint256)": "0e599d72",
        "markets(bytes32)": "7564912b",
        "maxBetAmount()": "cab11d5d",
        "minBetAmount()": "fa968eea",
        "owner()": "8da5cb5b",
        "placeBet(bytes32,uint8,uint256)": "0bd12209",
        "platformFee()": "26232a2e",
        "refundBets(bytes32)": "025f9dc0",
        "renounceOwnership()": "715018a6",
        "resolveMarket(bytes32,uint8)": "5e382837",
        "setBetLimits(uint256,uint256)": "7687dd49",
        "setPlatformFee(uint256)": "12e8e2c3",
        "setResolver(address,bool)": "1da6ed7c",
        "somiToken()": "a489080a",
        "transferOwnership(address)": "f2fde38b",
        "userBetIndices(bytes32,address,uint256)": "8fb361f6",
        "userBets(address,uint256)": "8068aa68",
        "withdrawFees()": "476343ee"
    },
    "id": 1
}