{"abi":[{"type":"function","name":"BOSS_HP","inputs":[],"outputs":[{"name":"","type":"uint256","internalType":"uint256"}],"stateMutability":"view"},{"type":"function","name":"TIME_LIMIT","inputs":[],"outputs":[{"name":"","type":"uint256","internalType":"uint256"}],"stateMutability":"view"},{"type":"function","name":"allSessions","inputs":[{"name":"","type":"uint256","internalType":"uint256"}],"outputs":[{"name":"","type":"bytes32","internalType":"bytes32"}],"stateMutability":"view"},{"type":"function","name":"dealDamage","inputs":[{"name":"_sessionId","type":"bytes32","internalType":"bytes32"},{"name":"_damage","type":"uint256","internalType":"uint256"}],"outputs":[],"stateMutability":"nonpayable"},{"type":"function","name":"endGame","inputs":[{"name":"_sessionId","type":"bytes32","internalType":"bytes32"}],"outputs":[],"stateMutability":"nonpayable"},{"type":"function","name":"gameSessions","inputs":[{"name":"","type":"bytes32","internalType":"bytes32"}],"outputs":[{"name":"sessionId","type":"bytes32","internalType":"bytes32"},{"name":"player","type":"address","internalType":"address"},{"name":"startTime","type":"uint256","internalType":"uint256"},{"name":"endTime","type":"uint256","internalType":"uint256"},{"name":"bossLevel","type":"uint8","internalType":"uint8"},{"name":"defeated","type":"bool","internalType":"bool"},{"name":"damageDealt","type":"uint256","internalType":"uint256"},{"name":"timeTaken","type":"uint256","internalType":"uint256"}],"stateMutability":"view"},{"type":"function","name":"getAllSessions","inputs":[],"outputs":[{"name":"","type":"bytes32[]","internalType":"bytes32[]"}],"stateMutability":"view"},{"type":"function","name":"getPlayerSessions","inputs":[{"name":"_player","type":"address","internalType":"address"}],"outputs":[{"name":"","type":"bytes32[]","internalType":"bytes32[]"}],"stateMutability":"view"},{"type":"function","name":"getPlayerStats","inputs":[{"name":"_player","type":"address","internalType":"address"}],"outputs":[{"name":"","type":"tuple","internalType":"struct BossBattleGame.Player","components":[{"name":"playerAddress","type":"address","internalType":"address"},{"name":"totalGames","type":"uint256","internalType":"uint256"},{"name":"victories","type":"uint256","internalType":"uint256"},{"name":"currentLevel","type":"uint8","internalType":"uint8"}]}],"stateMutability":"view"},{"type":"function","name":"getSession","inputs":[{"name":"_sessionId","type":"bytes32","internalType":"bytes32"}],"outputs":[{"name":"","type":"tuple","internalType":"struct BossBattleGame.GameSession","components":[{"name":"sessionId","type":"bytes32","internalType":"bytes32"},{"name":"player","type":"address","internalType":"address"},{"name":"startTime","type":"uint256","internalType":"uint256"},{"name":"endTime","type":"uint256","internalType":"uint256"},{"name":"bossLevel","type":"uint8","internalType":"uint8"},{"name":"defeated","type":"bool","internalType":"bool"},{"name":"damageDealt","type":"uint256","internalType":"uint256"},{"name":"timeTaken","type":"uint256","internalType":"uint256"}]}],"stateMutability":"view"},{"type":"function","name":"isGameActive","inputs":[{"name":"_sessionId","type":"bytes32","internalType":"bytes32"}],"outputs":[{"name":"","type":"bool","internalType":"bool"}],"stateMutability":"view"},{"type":"function","name":"playerSessions","inputs":[{"name":"","type":"address","internalType":"address"},{"name":"","type":"uint256","internalType":"uint256"}],"outputs":[{"name":"","type":"bytes32","internalType":"bytes32"}],"stateMutability":"view"},{"type":"function","name":"players","inputs":[{"name":"","type":"address","internalType":"address"}],"outputs":[{"name":"playerAddress","type":"address","internalType":"address"},{"name":"totalGames","type":"uint256","internalType":"uint256"},{"name":"victories","type":"uint256","internalType":"uint256"},{"name":"currentLevel","type":"uint8","internalType":"uint8"}],"stateMutability":"view"},{"type":"function","name":"startGame","inputs":[{"name":"_bossLevel","type":"uint8","internalType":"uint8"}],"outputs":[{"name":"","type":"bytes32","internalType":"bytes32"}],"stateMutability":"nonpayable"},{"type":"event","name":"BossDefeated","inputs":[{"name":"sessionId","type":"bytes32","indexed":true,"internalType":"bytes32"},{"name":"player","type":"address","indexed":true,"internalType":"address"},{"name":"timeTaken","type":"uint256","indexed":false,"internalType":"uint256"},{"name":"totalDamage","type":"uint256","indexed":false,"internalType":"uint256"}],"anonymous":false},{"type":"event","name":"DamageDealt","inputs":[{"name":"sessionId","type":"bytes32","indexed":true,"internalType":"bytes32"},{"name":"player","type":"address","indexed":true,"internalType":"address"},{"name":"damage","type":"uint256","indexed":false,"internalType":"uint256"},{"name":"timestamp","type":"uint256","indexed":false,"internalType":"uint256"}],"anonymous":false},{"type":"event","name":"GameFailed","inputs":[{"name":"sessionId","type":"bytes32","indexed":true,"internalType":"bytes32"},{"name":"player","type":"address","indexed":true,"internalType":"address"},{"name":"reason","type":"string","indexed":false,"internalType":"string"}],"anonymous":false},{"type":"event","name":"GameStarted","inputs":[{"name":"sessionId","type":"bytes32","indexed":true,"internalType":"bytes32"},{"name":"player","type":"address","indexed":true,"internalType":"address"},{"name":"startTime","type":"uint256","indexed":false,"internalType":"uint256"},{"name":"bossLevel","type":"uint8","indexed":false,"internalType":"uint8"}],"anonymous":false},{"type":"event","name":"PlayerLevelUp","inputs":[{"name":"player","type":"address","indexed":true,"internalType":"address"},{"name":"newLevel","type":"uint8","indexed":false,"internalType":"uint8"},{"name":"timestamp","type":"uint256","indexed":false,"internalType":"uint256"}],"anonymous":false}],"bytecode":{"object":"0x6080806040523461001657610fcb908161001b8239f35b5f80fdfe608060409080825260049182361015610016575f80fd5b5f60e0928135841c90816339b240bd14610be4575080633e9a334b146108b95780634fbfa459146108455780634fd66eae146107a157806354ca06b41461071a578063698224ae146106fe57806386185eba146106e15780638fdd3d6b14610598578063918cba7b14610515578063d55435ab146104eb578063d8838fe114610495578063d9cc134c14610442578063e2eb41ff146103e15763e6ab6079146100bd575f80fd5b346103da57602093846003193601126103dd5780359160ff83168093036103da5760019182841015806103cf575b156103975733825282875282858320015495855190888201973360601b895242603484015243605484015244607484015260948301526094825260c082019782891067ffffffffffffffff8a111761038457916006918589888d968d8352855190209c8d9533855282895260018060a01b03988980868820541615610317575b5093925050508a925080519661018088610d66565b8588528288013381528289019142835260608a01938c855260808b019687528c60a08c019681885260c08d0199828b528d019a828c528252528c2099518a558c8a019151166bffffffffffffffffffffffff60a01b82541617905551600288015551600387015560ff87870192511661ff0083549251151560081b169161ffff1916171790555160058401555191015533825260028752848220908154680100000000000000009283821015610304579061023f918682018155610d3d565b81549060031b9089821b915f19901b1916179055600354918210156102f157838201806003558210156102de5750908585927fc2575a0e9e593c00f959f8c92f12db2869c3395a3b0502d05e2516446f71f85b015533815282875220016102a68154610df1565b905581519042825284820152827f61c3ae5e674b40de107464bcd252994fd3a8df0a922bd325fcee862c6c5b3660833393a351908152f35b634e487b7160e01b835260329052602482fd5b634e487b7160e01b835260419052602482fd5b634e487b7160e01b855260418352602485fd5b60ff9560039561032686610d97565b338652898501938985526101206101008701968b88520199828b52339052528d209351166bffffffffffffffffffffffff60a01b845416178355518c8301555160028201550191511660ff198254161790558589885f808f8961016b565b634e487b7160e01b855260418452602485fd5b845162461bcd60e51b81529081018790526012602482015271125b9d985b1a5908189bdcdcc81b195d995b60721b6044820152606490fd5b50600a8411156100eb565b80fd5b5080fd5b5090346103dd5760203660031901126103dd576080916001600160a01b03919081908361040c610ce9565b168152600160205220918254169160018101549160ff600360028401549301541692815194855260208501528301526060820152f35b509083346104915760203660031901126104915735600354811015610491576003602093527fc2575a0e9e593c00f959f8c92f12db2869c3395a3b0502d05e2516446f71f85b01549051908152f35b8280fd5b5090346103dd57806003193601126103dd576104af610ce9565b6001600160a01b031682526002602052808220805460243593908410156103da57506020926104dd91610d3d565b91905490519160031b1c8152f35b848383346103da5760203660031901126103da575061050c60209235610ed7565b90519015158152f35b509290913461059457602036600319011261059457826101009483358152806020522060ff81549460018060a01b036001840154169460028401546003850154918501549260066005870154960154978151998a5260208a01528801526060870152818116608087015260081c16151560a085015260c0840152820152f35b8380fd5b50908334610491576020806003193601126105945781359182855284825260028486206105d260018060a01b036001830154163314610e13565b6105e560ff8483015460081c1615610e52565b600381016105f4815415610e96565b429055015490607882018092116106ce57504211156106a357825161061881610db3565b6013815272151a5b59481b1a5b5a5d08195e18d959591959606a1b82820152925b8051918083528451948582850152865b868110610690575050509081857f259a066d21b1618da61481e03745c68551d11ee8a95945c07a18a1d50477d43b938684010152813395601f80199101168101030190a380f35b8181018301518582018501528201610649565b82516106ae81610db3565b600e81526d0506c6179657220676176652075760941b8282015292610639565b634e487b7160e01b865260119052602485fd5b5090346103dd57816003193601126103dd57602090516103e88152f35b5090346103dd57816003193601126103dd576020905160788152f35b50346103da57806003193601126103da578151918291600354808552602080950194600383527fc2575a0e9e593c00f959f8c92f12db2869c3395a3b0502d05e2516446f71f85b92905b82821061078a57610786868661077c828b0383610dcf565b5191829182610d03565b0390f35b835487529586019560019384019390910190610764565b5090346103dd5760203660031901126103dd5760ff608092826107c2610ce9565b9180606083516107d181610d97565b8281528260208201528285820152015260018060a01b0380931681526001602052209280519161080083610d97565b84541693848352600181015460208401908152606085600360028501549486880195865201541694019384528251958652516020860152519084015251166060820152f35b5090346103dd5760209081600319360112610491576001600160a01b0361086a610ce9565b168352600282528083209281518093808654928381520195835280832092905b8282106108a257610786868661077c828b0383610dcf565b83548752958601956001938401939091019061088a565b508382346104915780600319360112610491578135906024928335908386526020918683528387206108f860018060a01b036001830154163314610e13565b805415610ba95761091260ff8483015460081c1615610e52565b610920600382015415610e96565b600281015460788101809111610adb574211610b71578115610b2f5760c88211610aed5760050190815491818301809311610adb5790826103e893925585519081524285820152867f0703aae8749db4620e0c93b782cf48ae4479ca381c548291199ed499a0c590e9873393a31015610997578580f35b8386528582528286209481860161010061ff00198254161790554260038701556002860154420391428311610aca5760068701928355338852600184528488206003600282016109e78154610df1565b8091550615610a33575b5050509060057fdb1506742e279f5a78372de70e62422f01026f6e2bcf82318c6b5868fb904dc59392549501549082519586528501523393a381808080808580f35b6003019081549260ff84169160ff8314610ab9575050917fdb1506742e279f5a78372de70e62422f01026f6e2bcf82318c6b5868fb904dc59594939160ff60016005950116809260ff1916179055845190815242848201527fa06180b906844cdc44516f3d1a62e293b7337e8ee99d55506c08f053ad4c2ba0853392a2919293886109f1565b634e487b7160e01b8b526011905289fd5b634e487b7160e01b88526011905286fd5b634e487b7160e01b8952601184528789fd5b845162461bcd60e51b81528084018590526017818901527f44616d61676520746f6f206869676820706572206869740000000000000000006044820152606490fd5b845162461bcd60e51b8152808401859052601d818901527f44616d616765206d7573742062652067726561746572207468616e20300000006044820152606490fd5b845162461bcd60e51b815280840185905260138189015272151a5b59481b1a5b5a5d08195e18d959591959606a1b6044820152606490fd5b845162461bcd60e51b81528084018590526016818901527514d95cdcda5bdb88191bd95cc81b9bdd08195e1a5cdd60521b6044820152606490fd5b838587859334610ce5576020366003190112610ce55784610100958483610c0b8895610d66565b82815282602082015282858201528260608201528260808201528260a08201528260c08201520152823581528060205220835191610c4883610d66565b60ff82549586855260018060a01b039283600186015416916020870192835260028601548188019081526003870154926060890193845287015495608089019486881686528660a08b019860081c16151588528a600660058b01549a60c08d019b8c5201549a01998a5283519b8c52511660208b015251908901525160608801525116608086015251151560a08501525160c08401525190820152f35b8480fd5b600435906001600160a01b0382168203610cff57565b5f80fd5b602090816040818301928281528551809452019301915f5b828110610d29575050505090565b835185529381019392810192600101610d1b565b8054821015610d52575f5260205f2001905f90565b634e487b7160e01b5f52603260045260245ffd5b610100810190811067ffffffffffffffff821117610d8357604052565b634e487b7160e01b5f52604160045260245ffd5b6080810190811067ffffffffffffffff821117610d8357604052565b6040810190811067ffffffffffffffff821117610d8357604052565b90601f8019910116810190811067ffffffffffffffff821117610d8357604052565b5f198114610dff5760010190565b634e487b7160e01b5f52601160045260245ffd5b15610e1a57565b60405162461bcd60e51b815260206004820152601060248201526f2737ba103cb7bab91039b2b9b9b4b7b760811b6044820152606490fd5b15610e5957565b60405162461bcd60e51b8152602060048201526015602482015274109bdcdcc8185b1c9958591e4819195999585d1959605a1b6044820152606490fd5b15610e9d57565b60405162461bcd60e51b815260206004820152601260248201527111d85b5948185b1c9958591e48195b99195960721b6044820152606490fd5b5f9081528060205260408120604051610eef81610d66565b8154815260018060a01b03600183015416602082015260028201549182604083015260038101549081606084015260ff6004820154818116608086015260081c16159260e060068515938460a0850152600581015460c0850152015491015291610f8b575b50610f875760788101809111610f73574211610f705750600190565b90565b634e487b7160e01b82526011600452602482fd5b5090565b905015155f610f5456fea2646970667358221220e3d6be282188cd1ca47a22411e1465f768ea901e5bfd25401fddfb2d00fa0b9264736f6c63430008140033","linkReferences":{}},"methodIdentifiers":{"BOSS_HP()":"86185eba","TIME_LIMIT()":"698224ae","allSessions(uint256)":"d9cc134c","dealDamage(bytes32,uint256)":"3e9a334b","endGame(bytes32)":"8fdd3d6b","gameSessions(bytes32)":"918cba7b","getAllSessions()":"54ca06b4","getPlayerSessions(address)":"4fbfa459","getPlayerStats(address)":"4fd66eae","getSession(bytes32)":"39b240bd","isGameActive(bytes32)":"d55435ab","playerSessions(address,uint256)":"d8838fe1","players(address)":"e2eb41ff","startGame(uint8)":"e6ab6079"},"id":0}