{"abi":[{"type":"constructor","inputs":[],"stateMutability":"nonpayable"},{"type":"function","name":"allowance","inputs":[{"name":"owner","type":"address","internalType":"address"},{"name":"spender","type":"address","internalType":"address"}],"outputs":[{"name":"","type":"uint256","internalType":"uint256"}],"stateMutability":"view"},{"type":"function","name":"approve","inputs":[{"name":"spender","type":"address","internalType":"address"},{"name":"value","type":"uint256","internalType":"uint256"}],"outputs":[{"name":"","type":"bool","internalType":"bool"}],"stateMutability":"nonpayable"},{"type":"function","name":"balanceOf","inputs":[{"name":"account","type":"address","internalType":"address"}],"outputs":[{"name":"","type":"uint256","internalType":"uint256"}],"stateMutability":"view"},{"type":"function","name":"canClaimFromFaucet","inputs":[{"name":"account","type":"address","internalType":"address"}],"outputs":[{"name":"","type":"bool","internalType":"bool"}],"stateMutability":"view"},{"type":"function","name":"claimFromFaucet","inputs":[],"outputs":[],"stateMutability":"nonpayable"},{"type":"function","name":"decimals","inputs":[],"outputs":[{"name":"","type":"uint8","internalType":"uint8"}],"stateMutability":"view"},{"type":"function","name":"faucetAmount","inputs":[],"outputs":[{"name":"","type":"uint256","internalType":"uint256"}],"stateMutability":"view"},{"type":"function","name":"faucetCooldown","inputs":[],"outputs":[{"name":"","type":"uint256","internalType":"uint256"}],"stateMutability":"view"},{"type":"function","name":"lastFaucetClaim","inputs":[{"name":"","type":"address","internalType":"address"}],"outputs":[{"name":"","type":"uint256","internalType":"uint256"}],"stateMutability":"view"},{"type":"function","name":"mint","inputs":[{"name":"to","type":"address","internalType":"address"},{"name":"amount","type":"uint256","internalType":"uint256"}],"outputs":[],"stateMutability":"nonpayable"},{"type":"function","name":"name","inputs":[],"outputs":[{"name":"","type":"string","internalType":"string"}],"stateMutability":"view"},{"type":"function","name":"owner","inputs":[],"outputs":[{"name":"","type":"address","internalType":"address"}],"stateMutability":"view"},{"type":"function","name":"renounceOwnership","inputs":[],"outputs":[],"stateMutability":"nonpayable"},{"type":"function","name":"setFaucetAmount","inputs":[{"name":"_amount","type":"uint256","internalType":"uint256"}],"outputs":[],"stateMutability":"nonpayable"},{"type":"function","name":"setFaucetCooldown","inputs":[{"name":"_cooldown","type":"uint256","internalType":"uint256"}],"outputs":[],"stateMutability":"nonpayable"},{"type":"function","name":"symbol","inputs":[],"outputs":[{"name":"","type":"string","internalType":"string"}],"stateMutability":"view"},{"type":"function","name":"timeUntilNextClaim","inputs":[{"name":"account","type":"address","internalType":"address"}],"outputs":[{"name":"","type":"uint256","internalType":"uint256"}],"stateMutability":"view"},{"type":"function","name":"totalSupply","inputs":[],"outputs":[{"name":"","type":"uint256","internalType":"uint256"}],"stateMutability":"view"},{"type":"function","name":"transfer","inputs":[{"name":"to","type":"address","internalType":"address"},{"name":"value","type":"uint256","internalType":"uint256"}],"outputs":[{"name":"","type":"bool","internalType":"bool"}],"stateMutability":"nonpayable"},{"type":"function","name":"transferFrom","inputs":[{"name":"from","type":"address","internalType":"address"},{"name":"to","type":"address","internalType":"address"},{"name":"value","type":"uint256","internalType":"uint256"}],"outputs":[{"name":"","type":"bool","internalType":"bool"}],"stateMutability":"nonpayable"},{"type":"function","name":"transferOwnership","inputs":[{"name":"newOwner","type":"address","internalType":"address"}],"outputs":[],"stateMutability":"nonpayable"},{"type":"event","name":"Approval","inputs":[{"name":"owner","type":"address","indexed":true,"internalType":"address"},{"name":"spender","type":"address","indexed":true,"internalType":"address"},{"name":"value","type":"uint256","indexed":false,"internalType":"uint256"}],"anonymous":false},{"type":"event","name":"FaucetAmountUpdated","inputs":[{"name":"newAmount","type":"uint256","indexed":false,"internalType":"uint256"}],"anonymous":false},{"type":"event","name":"FaucetClaimed","inputs":[{"name":"claimer","type":"address","indexed":true,"internalType":"address"},{"name":"amount","type":"uint256","indexed":false,"internalType":"uint256"}],"anonymous":false},{"type":"event","name":"FaucetCooldownUpdated","inputs":[{"name":"newCooldown","type":"uint256","indexed":false,"internalType":"uint256"}],"anonymous":false},{"type":"event","name":"OwnershipTransferred","inputs":[{"name":"previousOwner","type":"address","indexed":true,"internalType":"address"},{"name":"newOwner","type":"address","indexed":true,"internalType":"address"}],"anonymous":false},{"type":"event","name":"Transfer","inputs":[{"name":"from","type":"address","indexed":true,"internalType":"address"},{"name":"to","type":"address","indexed":true,"internalType":"address"},{"name":"value","type":"uint256","indexed":false,"internalType":"uint256"}],"anonymous":false},{"type":"error","name":"ERC20InsufficientAllowance","inputs":[{"name":"spender","type":"address","internalType":"address"},{"name":"allowance","type":"uint256","internalType":"uint256"},{"name":"needed","type":"uint256","internalType":"uint256"}]},{"type":"error","name":"ERC20InsufficientBalance","inputs":[{"name":"sender","type":"address","internalType":"address"},{"name":"balance","type":"uint256","internalType":"uint256"},{"name":"needed","type":"uint256","internalType":"uint256"}]},{"type":"error","name":"ERC20InvalidApprover","inputs":[{"name":"approver","type":"address","internalType":"address"}]},{"type":"error","name":"ERC20InvalidReceiver","inputs":[{"name":"receiver","type":"address","internalType":"address"}]},{"type":"error","name":"ERC20InvalidSender","inputs":[{"name":"sender","type":"address","internalType":"address"}]},{"type":"error","name":"ERC20InvalidSpender","inputs":[{"name":"spender","type":"address","internalType":"address"}]},{"type":"error","name":"OwnableInvalidOwner","inputs":[{"name":"owner","type":"address","internalType":"address"}]},{"type":"error","name":"OwnableUnauthorizedAccount","inputs":[{"name":"account","type":"address","internalType":"address"}]}],"bytecode":{"object":"0x60803462000409576040906001600160401b039080830182811182821017620003f5578352600f81526020906e29b7b6b4902a32b9ba102a37b5b2b760891b8282015283519284840184811082821117620003f557855260049384815263534f4d4960e01b848201528251828111620003e2576003918254916001958684811c94168015620003d7575b88851014620003c4578190601f9485811162000371575b5088908583116001146200030e575f9262000302575b50505f1982861b1c191690861b1783555b8051938411620002ef5786548581811c91168015620002e4575b87821014620002d15782811162000289575b508591841160011462000222579383949184925f9562000216575b50501b925f19911b1c19161782555b33156200020057600554336001600160a01b0382167f8be0079c531659141344cd1fd0a4f28419497f9722a3daafe3b4186f6b6457e05f80a36001600160a81b0319163360ff60a01b191617600960a11b1760055568056bc75e2d631000006006556201518060075560025469d3c21bcecceda100000092838201918210620001ed57505f917fddf252ad1be2c89b69c2b068fc378daa952ba7f163c4a11628f55a4df523b3ef9160025533835282815284832084815401905584519384523393a351610b9c90816200040e8239f35b601190634e487b7160e01b5f525260245ffd5b505f6024925191631e4fbdf760e01b8352820152fd5b015193505f806200010e565b9190601f19841692875f5284875f20945f5b898983831062000271575050501062000257575b50505050811b0182556200011d565b01519060f8845f19921b161c191690555f80808062000248565b86860151895590970196948501948893500162000234565b875f52865f208380870160051c820192898810620002c7575b0160051c019086905b828110620002bb575050620000f3565b5f8155018690620002ab565b92508192620002a2565b602288634e487b7160e01b5f525260245ffd5b90607f1690620000e1565b604187634e487b7160e01b5f525260245ffd5b015190505f80620000b6565b90889350601f19831691875f528a5f20925f5b8c8282106200035a575050841162000342575b505050811b018355620000c7565b01515f1983881b60f8161c191690555f808062000334565b8385015186558c9790950194938401930162000321565b909150855f52885f208580850160051c8201928b8610620003ba575b918a91869594930160051c01915b828110620003ab575050620000a0565b5f81558594508a91016200039b565b925081926200038d565b602289634e487b7160e01b5f525260245ffd5b93607f169362000089565b604186634e487b7160e01b5f525260245ffd5b634e487b7160e01b5f52604160045260245ffd5b5f80fdfe60806040818152600480361015610014575f80fd5b5f92833560e01c90816306fdde031461083857508063095ea7b31461078f57806318160ddd1461077057806323b872dd1461067e578063313ce5671461065957806340c10f191461063157806370a08231146105fa578063715018a61461059a5780637e36320b1461057b57806381d2fd9c1461052e5780638a877205146104f65780638da5cb5b146104cd578063913592041461048057806392d82dbe1461045357806395d89b41146103335780639c28143014610314578063a9059cbb146102e3578063dd62ed3e1461029a578063efc10bc41461024e578063f2fde38b146101bf5763fbbfb78214610107575f80fd5b346101bb57826003193601126101bb57338352600860205261012f82842054600754906109a4565b421061018057503382526008602052428183205561014f60065433610b09565b60065490519081527f5d4f415c63cd8a5874d9d291cdd64cec37e5dc236d90d659c958d109d78074b360203392a280f35b6020606492519162461bcd60e51b8352820152601660248201527546617563657420636f6f6c646f776e2061637469766560501b6044820152fd5b8280fd5b50346101bb5760203660031901126101bb576101d9610974565b906101e2610a02565b6001600160a01b03918216928315610238575050600554826bffffffffffffffffffffffff60a01b821617600555167f8be0079c531659141344cd1fd0a4f28419497f9722a3daafe3b4186f6b6457e08380a380f35b51631e4fbdf760e01b8152908101849052602490fd5b5050346102965760203660031901126102965760209161028c9082906001600160a01b0361027a610974565b168152600885522054600754906109a4565b4210159051908152f35b5080fd5b505034610296578060031936011261029657806020926102b8610974565b6102c061098e565b6001600160a01b0391821683526001865283832091168252845220549051908152f35b50503461029657806003193601126102965760209061030d610303610974565b6024359033610a2e565b5160018152f35b5050346102965781600319360112610296576020906006549051908152f35b50919034610296578160031936011261029657805190828454600181811c90808316928315610449575b60209384841081146104365783885290811561041a57506001146103c5575b505050829003601f01601f191682019267ffffffffffffffff8411838510176103b257508291826103ae92528261092d565b0390f35b634e487b7160e01b815260418552602490fd5b8787529192508591837f8a35acfbc15ff81a39ae7d344fd709f28e8600b4aa8c65c6b64bfe7fe36bd19b5b83851061040657505050508301015f808061037c565b8054888601830152930192849082016103f0565b60ff1916878501525050151560051b84010190505f808061037c565b634e487b7160e01b895260228a52602489fd5b91607f169161035d565b50503461029657602036600319011261029657602090610479610474610974565b6109c5565b9051908152f35b50346101bb5760203660031901126101bb577fc49d45d71bf3fd6dfd80cb1d2e6f93faad9e5684754d6b573fda7f694ea56aa29160209135906104c1610a02565b8160075551908152a180f35b50503461029657816003193601126102965760055490516001600160a01b039091168152602090f35b5050346102965760203660031901126102965760209181906001600160a01b0361051e610974565b1681526008845220549051908152f35b50346101bb5760203660031901126101bb577f07b130fc089b6153dc5748b5d744efe6ec1dd025c8c48e5b105e632f6cbd93da91602091359061056f610a02565b8160065551908152a180f35b5050346102965781600319360112610296576020906007549051908152f35b83346105f757806003193601126105f7576105b3610a02565b600580546001600160a01b0319811690915581906001600160a01b03167f8be0079c531659141344cd1fd0a4f28419497f9722a3daafe3b4186f6b6457e08280a380f35b80fd5b5050346102965760203660031901126102965760209181906001600160a01b03610622610974565b16815280845220549051908152f35b505034610296573660031901126105f75761065661064d610974565b60243590610b09565b80f35b50503461029657816003193601126102965760209060ff60055460a01c169051908152f35b5082346105f75760603660031901126105f757610699610974565b6106a161098e565b916044359360018060a01b038316808352600160205286832033845260205286832054915f1983106106dc575b60208861030d898989610a2e565b86831061074457811561072d5733156107165750825260016020908152868320338452815291869020908590039055829061030d876106ce565b8751634a1406b160e11b8152908101849052602490fd5b875163e602df0560e01b8152908101849052602490fd5b8751637dc7a0d960e11b8152339181019182526020820193909352604081018790528291506060010390fd5b5050346102965781600319360112610296576020906002549051908152f35b50346101bb57816003193601126101bb576107a8610974565b602435903315610821576001600160a01b031691821561080a57508083602095338152600187528181208582528752205582519081527f8c5be1e5ebec7d5bd14f71427d1e84f3dd0314c0f7b2291e5b200ac8c7c3b925843392a35160018152f35b8351634a1406b160e11b8152908101859052602490fd5b835163e602df0560e01b8152808401869052602490fd5b84915083346101bb57826003193601126101bb5782600354600181811c90808316928315610923575b60209384841081146104365783885290811561090757506001146108b157505050829003601f01601f191682019267ffffffffffffffff8411838510176103b257508291826103ae92528261092d565b600387529192508591837fc2575a0e9e593c00f959f8c92f12db2869c3395a3b0502d05e2516446f71f85b5b8385106108f3575050505083010185808061037c565b8054888601830152930192849082016108dd565b60ff1916878501525050151560051b840101905085808061037c565b91607f1691610861565b602080825282518183018190529093925f5b82811061096057505060409293505f838284010152601f8019910116010190565b81810186015184820160400152850161093f565b600435906001600160a01b038216820361098a57565b5f80fd5b602435906001600160a01b038216820361098a57565b919082018092116109b157565b634e487b7160e01b5f52601160045260245ffd5b6001600160a01b03165f908152600860205260409020546007546109e8916109a4565b804210156109fd574281039081116109b15790565b505f90565b6005546001600160a01b03163303610a1657565b60405163118cdaa760e01b8152336004820152602490fd5b916001600160a01b03808416928315610af15716928315610ad9575f9083825281602052604082205490838210610aa7575091604082827fddf252ad1be2c89b69c2b068fc378daa952ba7f163c4a11628f55a4df523b3ef958760209652828652038282205586815220818154019055604051908152a3565b60405163391434e360e21b81526001600160a01b03919091166004820152602481019190915260448101839052606490fd5b60405163ec442f0560e01b81525f6004820152602490fd5b604051634b637e8f60e11b81525f6004820152602490fd5b6001600160a01b0316908115610ad9577fddf252ad1be2c89b69c2b068fc378daa952ba7f163c4a11628f55a4df523b3ef602082610b4a5f946002546109a4565b60025584845283825260408420818154019055604051908152a356fea2646970667358221220c67069d56e91ee078d9922724253791ad40f35aa970f5a574ce387c9d599717164736f6c63430008140033","linkReferences":{}},"methodIdentifiers":{"allowance(address,address)":"dd62ed3e","approve(address,uint256)":"095ea7b3","balanceOf(address)":"70a08231","canClaimFromFaucet(address)":"efc10bc4","claimFromFaucet()":"fbbfb782","decimals()":"313ce567","faucetAmount()":"9c281430","faucetCooldown()":"7e36320b","lastFaucetClaim(address)":"8a877205","mint(address,uint256)":"40c10f19","name()":"06fdde03","owner()":"8da5cb5b","renounceOwnership()":"715018a6","setFaucetAmount(uint256)":"81d2fd9c","setFaucetCooldown(uint256)":"91359204","symbol()":"95d89b41","timeUntilNextClaim(address)":"92d82dbe","totalSupply()":"18160ddd","transfer(address,uint256)":"a9059cbb","transferFrom(address,address,uint256)":"23b872dd","transferOwnership(address)":"f2fde38b"},"id":2}